{
	"contracts/myContract.sol": {
		"myContract": {
			"abi": [
				{
					"constant": true,
					"inputs": [],
					"name": "getBalance",
					"outputs": [
						{
							"name": "",
							"type": "uint256"
						}
					],
					"payable": false,
					"stateMutability": "view",
					"type": "function"
				},
				{
					"constant": false,
					"inputs": [],
					"name": "withdraw",
					"outputs": [],
					"payable": false,
					"stateMutability": "nonpayable",
					"type": "function"
				},
				{
					"constant": false,
					"inputs": [],
					"name": "getOwner",
					"outputs": [],
					"payable": false,
					"stateMutability": "nonpayable",
					"type": "function"
				},
				{
					"constant": false,
					"inputs": [
						{
							"name": "amount",
							"type": "uint256"
						}
					],
					"name": "deposit",
					"outputs": [],
					"payable": true,
					"stateMutability": "payable",
					"type": "function"
				}
			],
			"devdoc": {
				"methods": {}
			},
			"evm": {
				"assembly": "    /* \"contracts/myContract.sol\":67:546  contract myContract {... */\n  mstore(0x40, 0x60)\n  jumpi(tag_1, iszero(callvalue))\n  0x0\n  dup1\n  revert\ntag_1:\n  dataSize(sub_0)\n  dup1\n  dataOffset(sub_0)\n  0x0\n  codecopy\n  0x0\n  return\nstop\n\nsub_0: assembly {\n        /* \"contracts/myContract.sol\":67:546  contract myContract {... */\n      mstore(0x40, 0x60)\n      jumpi(tag_1, lt(calldatasize, 0x4))\n      calldataload(0x0)\n      0x100000000000000000000000000000000000000000000000000000000\n      swap1\n      div\n      0xffffffff\n      and\n      dup1\n      0x12065fe0\n      eq\n      tag_2\n      jumpi\n      dup1\n      0x3ccfd60b\n      eq\n      tag_3\n      jumpi\n      dup1\n      0x893d20e8\n      eq\n      tag_4\n      jumpi\n      dup1\n      0xb6b55f25\n      eq\n      tag_5\n      jumpi\n    tag_1:\n      0x0\n      dup1\n      revert\n        /* \"contracts/myContract.sol\":447:544  function getBalance() public view returns (uint256) {... */\n    tag_2:\n      jumpi(tag_6, iszero(callvalue))\n      0x0\n      dup1\n      revert\n    tag_6:\n      tag_7\n      jump(tag_8)\n    tag_7:\n      mload(0x40)\n      dup1\n      dup3\n      dup2\n      mstore\n      0x20\n      add\n      swap2\n      pop\n      pop\n      mload(0x40)\n      dup1\n      swap2\n      sub\n      swap1\n      return\n        /* \"contracts/myContract.sol\":218:342  function withdraw() public {... */\n    tag_3:\n      jumpi(tag_9, iszero(callvalue))\n      0x0\n      dup1\n      revert\n    tag_9:\n      tag_10\n      jump(tag_11)\n    tag_10:\n      stop\n        /* \"contracts/myContract.sol\":150:212  function getOwner() public {... */\n    tag_4:\n      jumpi(tag_12, iszero(callvalue))\n      0x0\n      dup1\n      revert\n    tag_12:\n      tag_13\n      jump(tag_14)\n    tag_13:\n      stop\n        /* \"contracts/myContract.sol\":348:441  function deposit(uint256 amount) public payable {... */\n    tag_5:\n      tag_15\n      0x4\n      dup1\n      dup1\n      calldataload\n      swap1\n      0x20\n      add\n      swap1\n      swap2\n      swap1\n      pop\n      pop\n      jump(tag_16)\n    tag_15:\n      stop\n        /* \"contracts/myContract.sol\":447:544  function getBalance() public view returns (uint256) {... */\n    tag_8:\n        /* \"contracts/myContract.sol\":490:497  uint256 */\n      0x0\n        /* \"contracts/myContract.sol\":524:528  this */\n      address\n        /* \"contracts/myContract.sol\":516:537  address(this).balance */\n      0xffffffffffffffffffffffffffffffffffffffff\n      and\n      balance\n        /* \"contracts/myContract.sol\":509:537  return address(this).balance */\n      swap1\n      pop\n        /* \"contracts/myContract.sol\":447:544  function getBalance() public view returns (uint256) {... */\n      swap1\n      jump\t// out\n        /* \"contracts/myContract.sol\":218:342  function withdraw() public {... */\n    tag_11:\n        /* \"contracts/myContract.sol\":272:282  msg.sender */\n      caller\n        /* \"contracts/myContract.sol\":263:282  owner == msg.sender */\n      0xffffffffffffffffffffffffffffffffffffffff\n      and\n        /* \"contracts/myContract.sol\":263:268  owner */\n      0x0\n      dup1\n      swap1\n      sload\n      swap1\n      0x100\n      exp\n      swap1\n      div\n      0xffffffffffffffffffffffffffffffffffffffff\n      and\n        /* \"contracts/myContract.sol\":263:282  owner == msg.sender */\n      0xffffffffffffffffffffffffffffffffffffffff\n      and\n      eq\n        /* \"contracts/myContract.sol\":255:283  require(owner == msg.sender) */\n      iszero\n      iszero\n      tag_19\n      jumpi\n      0x0\n      dup1\n      revert\n    tag_19:\n        /* \"contracts/myContract.sol\":293:303  msg.sender */\n      caller\n        /* \"contracts/myContract.sol\":293:312  msg.sender.transfer */\n      0xffffffffffffffffffffffffffffffffffffffff\n      and\n        /* \"contracts/myContract.sol\":293:335  msg.sender.transfer(address(this).balance) */\n      0x8fc\n        /* \"contracts/myContract.sol\":321:325  this */\n      address\n        /* \"contracts/myContract.sol\":313:334  address(this).balance */\n      0xffffffffffffffffffffffffffffffffffffffff\n      and\n      balance\n        /* \"contracts/myContract.sol\":293:335  msg.sender.transfer(address(this).balance) */\n      swap1\n      dup2\n      iszero\n      mul\n      swap1\n      mload(0x40)\n      0x0\n      mload(0x40)\n      dup1\n      dup4\n      sub\n      dup2\n      dup6\n      dup9\n      dup9\n      call\n      swap4\n      pop\n      pop\n      pop\n      pop\n      iszero\n      iszero\n      tag_20\n      jumpi\n      0x0\n      dup1\n      revert\n    tag_20:\n        /* \"contracts/myContract.sol\":218:342  function withdraw() public {... */\n      jump\t// out\n        /* \"contracts/myContract.sol\":150:212  function getOwner() public {... */\n    tag_14:\n        /* \"contracts/myContract.sol\":195:205  msg.sender */\n      caller\n        /* \"contracts/myContract.sol\":187:192  owner */\n      0x0\n      dup1\n        /* \"contracts/myContract.sol\":187:205  owner = msg.sender */\n      0x100\n      exp\n      dup2\n      sload\n      dup2\n      0xffffffffffffffffffffffffffffffffffffffff\n      mul\n      not\n      and\n      swap1\n      dup4\n      0xffffffffffffffffffffffffffffffffffffffff\n      and\n      mul\n      or\n      swap1\n      sstore\n      pop\n        /* \"contracts/myContract.sol\":150:212  function getOwner() public {... */\n      jump\t// out\n        /* \"contracts/myContract.sol\":348:441  function deposit(uint256 amount) public payable {... */\n    tag_16:\n        /* \"contracts/myContract.sol\":427:433  amount */\n      dup1\n        /* \"contracts/myContract.sol\":414:423  msg.value */\n      callvalue\n        /* \"contracts/myContract.sol\":414:433  msg.value == amount */\n      eq\n        /* \"contracts/myContract.sol\":406:434  require(msg.value == amount) */\n      iszero\n      iszero\n      tag_23\n      jumpi\n      0x0\n      dup1\n      revert\n    tag_23:\n        /* \"contracts/myContract.sol\":348:441  function deposit(uint256 amount) public payable {... */\n      pop\n      jump\t// out\n\n    auxdata: 0xa165627a7a72305820b914b9111165062285787d665c0febb0dc6c5201e741cedb8be7e0d57130efdd0029\n}\n",
				"bytecode": {
					"linkReferences": {},
					"object": "6060604052341561000f57600080fd5b6102248061001e6000396000f300606060405260043610610062576000357c0100000000000000000000000000000000000000000000000000000000900463ffffffff16806312065fe0146100675780633ccfd60b14610090578063893d20e8146100a5578063b6b55f25146100ba575b600080fd5b341561007257600080fd5b61007a6100d2565b6040518082815260200191505060405180910390f35b341561009b57600080fd5b6100a36100f1565b005b34156100b057600080fd5b6100b86101a5565b005b6100d060048080359060200190919050506101e7565b005b60003073ffffffffffffffffffffffffffffffffffffffff1631905090565b3373ffffffffffffffffffffffffffffffffffffffff166000809054906101000a900473ffffffffffffffffffffffffffffffffffffffff1673ffffffffffffffffffffffffffffffffffffffff1614151561014c57600080fd5b3373ffffffffffffffffffffffffffffffffffffffff166108fc3073ffffffffffffffffffffffffffffffffffffffff16319081150290604051600060405180830381858888f1935050505015156101a357600080fd5b565b336000806101000a81548173ffffffffffffffffffffffffffffffffffffffff021916908373ffffffffffffffffffffffffffffffffffffffff160217905550565b80341415156101f557600080fd5b505600a165627a7a72305820b914b9111165062285787d665c0febb0dc6c5201e741cedb8be7e0d57130efdd0029",
					"opcodes": "PUSH1 0x60 PUSH1 0x40 MSTORE CALLVALUE ISZERO PUSH2 0xF JUMPI PUSH1 0x0 DUP1 REVERT JUMPDEST PUSH2 0x224 DUP1 PUSH2 0x1E PUSH1 0x0 CODECOPY PUSH1 0x0 RETURN STOP PUSH1 0x60 PUSH1 0x40 MSTORE PUSH1 0x4 CALLDATASIZE LT PUSH2 0x62 JUMPI PUSH1 0x0 CALLDATALOAD PUSH29 0x100000000000000000000000000000000000000000000000000000000 SWAP1 DIV PUSH4 0xFFFFFFFF AND DUP1 PUSH4 0x12065FE0 EQ PUSH2 0x67 JUMPI DUP1 PUSH4 0x3CCFD60B EQ PUSH2 0x90 JUMPI DUP1 PUSH4 0x893D20E8 EQ PUSH2 0xA5 JUMPI DUP1 PUSH4 0xB6B55F25 EQ PUSH2 0xBA JUMPI JUMPDEST PUSH1 0x0 DUP1 REVERT JUMPDEST CALLVALUE ISZERO PUSH2 0x72 JUMPI PUSH1 0x0 DUP1 REVERT JUMPDEST PUSH2 0x7A PUSH2 0xD2 JUMP JUMPDEST PUSH1 0x40 MLOAD DUP1 DUP3 DUP2 MSTORE PUSH1 0x20 ADD SWAP2 POP POP PUSH1 0x40 MLOAD DUP1 SWAP2 SUB SWAP1 RETURN JUMPDEST CALLVALUE ISZERO PUSH2 0x9B JUMPI PUSH1 0x0 DUP1 REVERT JUMPDEST PUSH2 0xA3 PUSH2 0xF1 JUMP JUMPDEST STOP JUMPDEST CALLVALUE ISZERO PUSH2 0xB0 JUMPI PUSH1 0x0 DUP1 REVERT JUMPDEST PUSH2 0xB8 PUSH2 0x1A5 JUMP JUMPDEST STOP JUMPDEST PUSH2 0xD0 PUSH1 0x4 DUP1 DUP1 CALLDATALOAD SWAP1 PUSH1 0x20 ADD SWAP1 SWAP2 SWAP1 POP POP PUSH2 0x1E7 JUMP JUMPDEST STOP JUMPDEST PUSH1 0x0 ADDRESS PUSH20 0xFFFFFFFFFFFFFFFFFFFFFFFFFFFFFFFFFFFFFFFF AND BALANCE SWAP1 POP SWAP1 JUMP JUMPDEST CALLER PUSH20 0xFFFFFFFFFFFFFFFFFFFFFFFFFFFFFFFFFFFFFFFF AND PUSH1 0x0 DUP1 SWAP1 SLOAD SWAP1 PUSH2 0x100 EXP SWAP1 DIV PUSH20 0xFFFFFFFFFFFFFFFFFFFFFFFFFFFFFFFFFFFFFFFF AND PUSH20 0xFFFFFFFFFFFFFFFFFFFFFFFFFFFFFFFFFFFFFFFF AND EQ ISZERO ISZERO PUSH2 0x14C JUMPI PUSH1 0x0 DUP1 REVERT JUMPDEST CALLER PUSH20 0xFFFFFFFFFFFFFFFFFFFFFFFFFFFFFFFFFFFFFFFF AND PUSH2 0x8FC ADDRESS PUSH20 0xFFFFFFFFFFFFFFFFFFFFFFFFFFFFFFFFFFFFFFFF AND BALANCE SWAP1 DUP2 ISZERO MUL SWAP1 PUSH1 0x40 MLOAD PUSH1 0x0 PUSH1 0x40 MLOAD DUP1 DUP4 SUB DUP2 DUP6 DUP9 DUP9 CALL SWAP4 POP POP POP POP ISZERO ISZERO PUSH2 0x1A3 JUMPI PUSH1 0x0 DUP1 REVERT JUMPDEST JUMP JUMPDEST CALLER PUSH1 0x0 DUP1 PUSH2 0x100 EXP DUP2 SLOAD DUP2 PUSH20 0xFFFFFFFFFFFFFFFFFFFFFFFFFFFFFFFFFFFFFFFF MUL NOT AND SWAP1 DUP4 PUSH20 0xFFFFFFFFFFFFFFFFFFFFFFFFFFFFFFFFFFFFFFFF AND MUL OR SWAP1 SSTORE POP JUMP JUMPDEST DUP1 CALLVALUE EQ ISZERO ISZERO PUSH2 0x1F5 JUMPI PUSH1 0x0 DUP1 REVERT JUMPDEST POP JUMP STOP LOG1 PUSH6 0x627A7A723058 KECCAK256 0xb9 EQ 0xb9 GT GT PUSH6 0x62285787D66 0x5c 0xf 0xeb 0xb0 0xdc PUSH13 0x5201E741CEDB8BE7E0D57130EF 0xdd STOP 0x29 "
				},
				"gasEstimates": {
					"creation": {
						"codeDepositCost": "109600",
						"executionCost": "154",
						"totalCost": "109754"
					},
					"external": {
						"deposit(uint256)": "239",
						"getBalance()": "599",
						"getOwner()": "20438",
						"withdraw()": "infinite"
					}
				},
				"methodIdentifiers": {
					"deposit(uint256)": "b6b55f25",
					"getBalance()": "12065fe0",
					"getOwner()": "893d20e8",
					"withdraw()": "3ccfd60b"
				}
			},
			"userdoc": {
				"methods": {}
			}
		}
	}
}