{
	"contracts/myContract.sol": {
		"MyContract": {
			"abi": [
				{
					"inputs": [],
					"stateMutability": "nonpayable",
					"type": "constructor"
				},
				{
					"inputs": [],
					"name": "admin",
					"outputs": [
						{
							"internalType": "address payable",
							"name": "",
							"type": "address"
						}
					],
					"stateMutability": "view",
					"type": "function"
				},
				{
					"inputs": [],
					"name": "checkDepositBalance",
					"outputs": [
						{
							"internalType": "uint256",
							"name": "",
							"type": "uint256"
						}
					],
					"stateMutability": "view",
					"type": "function"
				},
				{
					"inputs": [
						{
							"internalType": "uint256",
							"name": "amount",
							"type": "uint256"
						}
					],
					"name": "deposite",
					"outputs": [
						{
							"internalType": "uint256",
							"name": "",
							"type": "uint256"
						}
					],
					"stateMutability": "nonpayable",
					"type": "function"
				},
				{
					"inputs": [
						{
							"internalType": "uint256",
							"name": "amount",
							"type": "uint256"
						}
					],
					"name": "withdraw",
					"outputs": [],
					"stateMutability": "nonpayable",
					"type": "function"
				}
			],
			"devdoc": {
				"kind": "dev",
				"methods": {},
				"version": 1
			},
			"evm": {
				"assembly": "    /* \"contracts/myContract.sol\":68:775  contract MyContract {... */\n  mstore(0x40, 0x80)\n    /* \"contracts/myContract.sol\":144:246  constructor() {... */\n  callvalue\n  dup1\n  iszero\n  tag_1\n  jumpi\n  0x00\n  dup1\n  revert\ntag_1:\n  pop\n    /* \"contracts/myContract.sol\":183:193  msg.sender */\n  caller\n    /* \"contracts/myContract.sol\":167:172  admin */\n  0x01\n  0x00\n    /* \"contracts/myContract.sol\":167:194  admin = payable(msg.sender) */\n  0x0100\n  exp\n  dup2\n  sload\n  dup2\n  0xffffffffffffffffffffffffffffffffffffffff\n  mul\n  not\n  and\n  swap1\n  dup4\n  0xffffffffffffffffffffffffffffffffffffffff\n  and\n  mul\n  or\n  swap1\n  sstore\n  pop\n    /* \"contracts/myContract.sol\":213:214  0 */\n  0x00\n    /* \"contracts/myContract.sol\":203:210  balance */\n  dup1\n    /* \"contracts/myContract.sol\":203:214  balance = 0 */\n  dup2\n  swap1\n  sstore\n  pop\n    /* \"contracts/myContract.sol\":223:238  updateBalance() */\n  tag_4\n    /* \"contracts/myContract.sol\":223:236  updateBalance */\n  shl(0x20, tag_5)\n    /* \"contracts/myContract.sol\":223:238  updateBalance() */\n  0x20\n  shr\n  jump\t// in\ntag_4:\n    /* \"contracts/myContract.sol\":68:775  contract MyContract {... */\n  jump(tag_6)\n    /* \"contracts/myContract.sol\":250:319  function updateBalance() internal {... */\ntag_5:\n    /* \"contracts/myContract.sol\":304:313  msg.value */\n  callvalue\n    /* \"contracts/myContract.sol\":293:300  balance */\n  0x00\n  dup1\n    /* \"contracts/myContract.sol\":293:313  balance += msg.value */\n  dup3\n  dup3\n  sload\n  tag_8\n  swap2\n  swap1\n  tag_9\n  jump\t// in\ntag_8:\n  swap3\n  pop\n  pop\n  dup2\n  swap1\n  sstore\n  pop\n    /* \"contracts/myContract.sol\":250:319  function updateBalance() internal {... */\n  jump\t// out\n    /* \"#utility.yul\":7:84   */\ntag_10:\n    /* \"#utility.yul\":44:51   */\n  0x00\n    /* \"#utility.yul\":73:78   */\n  dup2\n    /* \"#utility.yul\":62:78   */\n  swap1\n  pop\n    /* \"#utility.yul\":7:84   */\n  swap2\n  swap1\n  pop\n  jump\t// out\n    /* \"#utility.yul\":90:270   */\ntag_11:\n    /* \"#utility.yul\":138:215   */\n  0x4e487b7100000000000000000000000000000000000000000000000000000000\n    /* \"#utility.yul\":135:136   */\n  0x00\n    /* \"#utility.yul\":128:216   */\n  mstore\n    /* \"#utility.yul\":235:239   */\n  0x11\n    /* \"#utility.yul\":232:233   */\n  0x04\n    /* \"#utility.yul\":225:240   */\n  mstore\n    /* \"#utility.yul\":259:263   */\n  0x24\n    /* \"#utility.yul\":256:257   */\n  0x00\n    /* \"#utility.yul\":249:264   */\n  revert\n    /* \"#utility.yul\":276:581   */\ntag_9:\n    /* \"#utility.yul\":316:319   */\n  0x00\n    /* \"#utility.yul\":335:355   */\n  tag_16\n    /* \"#utility.yul\":353:354   */\n  dup3\n    /* \"#utility.yul\":335:355   */\n  tag_10\n  jump\t// in\ntag_16:\n    /* \"#utility.yul\":330:355   */\n  swap2\n  pop\n    /* \"#utility.yul\":369:389   */\n  tag_17\n    /* \"#utility.yul\":387:388   */\n  dup4\n    /* \"#utility.yul\":369:389   */\n  tag_10\n  jump\t// in\ntag_17:\n    /* \"#utility.yul\":364:389   */\n  swap3\n  pop\n    /* \"#utility.yul\":523:524   */\n  dup3\n    /* \"#utility.yul\":455:521   */\n  0xffffffffffffffffffffffffffffffffffffffffffffffffffffffffffffffff\n    /* \"#utility.yul\":451:525   */\n  sub\n    /* \"#utility.yul\":448:449   */\n  dup3\n    /* \"#utility.yul\":445:526   */\n  gt\n    /* \"#utility.yul\":442:549   */\n  iszero\n  tag_18\n  jumpi\n    /* \"#utility.yul\":529:547   */\n  tag_19\n  tag_11\n  jump\t// in\ntag_19:\n    /* \"#utility.yul\":442:549   */\ntag_18:\n    /* \"#utility.yul\":573:574   */\n  dup3\n    /* \"#utility.yul\":570:571   */\n  dup3\n    /* \"#utility.yul\":566:575   */\n  add\n    /* \"#utility.yul\":559:575   */\n  swap1\n  pop\n    /* \"#utility.yul\":276:581   */\n  swap3\n  swap2\n  pop\n  pop\n  jump\t// out\n    /* \"contracts/myContract.sol\":68:775  contract MyContract {... */\ntag_6:\n  dataSize(sub_0)\n  dup1\n  dataOffset(sub_0)\n  0x00\n  codecopy\n  0x00\n  return\nstop\n\nsub_0: assembly {\n        /* \"contracts/myContract.sol\":68:775  contract MyContract {... */\n      mstore(0x40, 0x80)\n      callvalue\n      dup1\n      iszero\n      tag_1\n      jumpi\n      0x00\n      dup1\n      revert\n    tag_1:\n      pop\n      jumpi(tag_2, lt(calldatasize, 0x04))\n      shr(0xe0, calldataload(0x00))\n      dup1\n      0x2e1a7d4d\n      eq\n      tag_3\n      jumpi\n      dup1\n      0x3104562b\n      eq\n      tag_4\n      jumpi\n      dup1\n      0xd5b690ee\n      eq\n      tag_5\n      jumpi\n      dup1\n      0xf851a440\n      eq\n      tag_6\n      jumpi\n    tag_2:\n      0x00\n      dup1\n      revert\n        /* \"contracts/myContract.sol\":323:587  function withdraw(uint256 amount)  public{... */\n    tag_3:\n      tag_7\n      0x04\n      dup1\n      calldatasize\n      sub\n      dup2\n      add\n      swap1\n      tag_8\n      swap2\n      swap1\n      tag_9\n      jump\t// in\n    tag_8:\n      tag_10\n      jump\t// in\n    tag_7:\n      stop\n        /* \"contracts/myContract.sol\":592:689  function deposite(uint256 amount) public returns (uint256) { return balance = balance + amount; } */\n    tag_4:\n      tag_11\n      0x04\n      dup1\n      calldatasize\n      sub\n      dup2\n      add\n      swap1\n      tag_12\n      swap2\n      swap1\n      tag_9\n      jump\t// in\n    tag_12:\n      tag_13\n      jump\t// in\n    tag_11:\n      mload(0x40)\n      tag_14\n      swap2\n      swap1\n      tag_15\n      jump\t// in\n    tag_14:\n      mload(0x40)\n      dup1\n      swap2\n      sub\n      swap1\n      return\n        /* \"contracts/myContract.sol\":693:773  function checkDepositBalance() public view returns (uint256) { return balance; } */\n    tag_5:\n      tag_16\n      tag_17\n      jump\t// in\n    tag_16:\n      mload(0x40)\n      tag_18\n      swap2\n      swap1\n      tag_15\n      jump\t// in\n    tag_18:\n      mload(0x40)\n      dup1\n      swap2\n      sub\n      swap1\n      return\n        /* \"contracts/myContract.sol\":113:141  address payable public admin */\n    tag_6:\n      tag_19\n      tag_20\n      jump\t// in\n    tag_19:\n      mload(0x40)\n      tag_21\n      swap2\n      swap1\n      tag_22\n      jump\t// in\n    tag_21:\n      mload(0x40)\n      dup1\n      swap2\n      sub\n      swap1\n      return\n        /* \"contracts/myContract.sol\":323:587  function withdraw(uint256 amount)  public{... */\n    tag_10:\n        /* \"contracts/myContract.sol\":395:400  admin */\n      0x01\n      0x00\n      swap1\n      sload\n      swap1\n      0x0100\n      exp\n      swap1\n      div\n      0xffffffffffffffffffffffffffffffffffffffff\n      and\n        /* \"contracts/myContract.sol\":381:400  msg.sender == admin */\n      0xffffffffffffffffffffffffffffffffffffffff\n      and\n        /* \"contracts/myContract.sol\":381:391  msg.sender */\n      caller\n        /* \"contracts/myContract.sol\":381:400  msg.sender == admin */\n      0xffffffffffffffffffffffffffffffffffffffff\n      and\n      eq\n        /* \"contracts/myContract.sol\":373:446  require(msg.sender == admin, \"Withdrawing is possible only for an admin\") */\n      tag_24\n      jumpi\n      mload(0x40)\n      0x08c379a000000000000000000000000000000000000000000000000000000000\n      dup2\n      mstore\n      0x04\n      add\n      tag_25\n      swap1\n      tag_26\n      jump\t// in\n    tag_25:\n      mload(0x40)\n      dup1\n      swap2\n      sub\n      swap1\n      revert\n    tag_24:\n        /* \"contracts/myContract.sol\":473:480  balance */\n      sload(0x00)\n        /* \"contracts/myContract.sol\":463:469  amount */\n      dup2\n        /* \"contracts/myContract.sol\":463:480  amount <= balance */\n      gt\n      iszero\n        /* \"contracts/myContract.sol\":455:542  require(amount <= balance, \"Withdraw can not be proceeded, because of limited balance\") */\n      tag_27\n      jumpi\n      mload(0x40)\n      0x08c379a000000000000000000000000000000000000000000000000000000000\n      dup2\n      mstore\n      0x04\n      add\n      tag_28\n      swap1\n      tag_29\n      jump\t// in\n    tag_28:\n      mload(0x40)\n      dup1\n      swap2\n      sub\n      swap1\n      revert\n    tag_27:\n        /* \"contracts/myContract.sol\":574:580  amount */\n      dup1\n        /* \"contracts/myContract.sol\":564:571  balance */\n      sload(0x00)\n        /* \"contracts/myContract.sol\":564:580  balance - amount */\n      tag_30\n      swap2\n      swap1\n      tag_31\n      jump\t// in\n    tag_30:\n        /* \"contracts/myContract.sol\":554:561  balance */\n      0x00\n        /* \"contracts/myContract.sol\":554:580  balance = balance - amount */\n      dup2\n      swap1\n      sstore\n      pop\n        /* \"contracts/myContract.sol\":323:587  function withdraw(uint256 amount)  public{... */\n      pop\n      jump\t// out\n        /* \"contracts/myContract.sol\":592:689  function deposite(uint256 amount) public returns (uint256) { return balance = balance + amount; } */\n    tag_13:\n        /* \"contracts/myContract.sol\":642:649  uint256 */\n      0x00\n        /* \"contracts/myContract.sol\":680:686  amount */\n      dup2\n        /* \"contracts/myContract.sol\":670:677  balance */\n      sload(0x00)\n        /* \"contracts/myContract.sol\":670:686  balance + amount */\n      tag_33\n      swap2\n      swap1\n      tag_34\n      jump\t// in\n    tag_33:\n        /* \"contracts/myContract.sol\":660:667  balance */\n      0x00\n        /* \"contracts/myContract.sol\":660:686  balance = balance + amount */\n      dup2\n      swap1\n      sstore\n        /* \"contracts/myContract.sol\":653:686  return balance = balance + amount */\n      swap1\n      pop\n        /* \"contracts/myContract.sol\":592:689  function deposite(uint256 amount) public returns (uint256) { return balance = balance + amount; } */\n      swap2\n      swap1\n      pop\n      jump\t// out\n        /* \"contracts/myContract.sol\":693:773  function checkDepositBalance() public view returns (uint256) { return balance; } */\n    tag_17:\n        /* \"contracts/myContract.sol\":745:752  uint256 */\n      0x00\n        /* \"contracts/myContract.sol\":763:770  balance */\n      dup1\n      sload\n        /* \"contracts/myContract.sol\":756:770  return balance */\n      swap1\n      pop\n        /* \"contracts/myContract.sol\":693:773  function checkDepositBalance() public view returns (uint256) { return balance; } */\n      swap1\n      jump\t// out\n        /* \"contracts/myContract.sol\":113:141  address payable public admin */\n    tag_20:\n      0x01\n      0x00\n      swap1\n      sload\n      swap1\n      0x0100\n      exp\n      swap1\n      div\n      0xffffffffffffffffffffffffffffffffffffffff\n      and\n      dup2\n      jump\t// out\n        /* \"#utility.yul\":88:205   */\n    tag_37:\n        /* \"#utility.yul\":197:198   */\n      0x00\n        /* \"#utility.yul\":194:195   */\n      dup1\n        /* \"#utility.yul\":187:199   */\n      revert\n        /* \"#utility.yul\":334:411   */\n    tag_39:\n        /* \"#utility.yul\":371:378   */\n      0x00\n        /* \"#utility.yul\":400:405   */\n      dup2\n        /* \"#utility.yul\":389:405   */\n      swap1\n      pop\n        /* \"#utility.yul\":334:411   */\n      swap2\n      swap1\n      pop\n      jump\t// out\n        /* \"#utility.yul\":417:539   */\n    tag_40:\n        /* \"#utility.yul\":490:514   */\n      tag_58\n        /* \"#utility.yul\":508:513   */\n      dup2\n        /* \"#utility.yul\":490:514   */\n      tag_39\n      jump\t// in\n    tag_58:\n        /* \"#utility.yul\":483:488   */\n      dup2\n        /* \"#utility.yul\":480:515   */\n      eq\n        /* \"#utility.yul\":470:533   */\n      tag_59\n      jumpi\n        /* \"#utility.yul\":529:530   */\n      0x00\n        /* \"#utility.yul\":526:527   */\n      dup1\n        /* \"#utility.yul\":519:531   */\n      revert\n        /* \"#utility.yul\":470:533   */\n    tag_59:\n        /* \"#utility.yul\":417:539   */\n      pop\n      jump\t// out\n        /* \"#utility.yul\":545:684   */\n    tag_41:\n        /* \"#utility.yul\":591:596   */\n      0x00\n        /* \"#utility.yul\":629:635   */\n      dup2\n        /* \"#utility.yul\":616:636   */\n      calldataload\n        /* \"#utility.yul\":607:636   */\n      swap1\n      pop\n        /* \"#utility.yul\":645:678   */\n      tag_61\n        /* \"#utility.yul\":672:677   */\n      dup2\n        /* \"#utility.yul\":645:678   */\n      tag_40\n      jump\t// in\n    tag_61:\n        /* \"#utility.yul\":545:684   */\n      swap3\n      swap2\n      pop\n      pop\n      jump\t// out\n        /* \"#utility.yul\":690:1019   */\n    tag_9:\n        /* \"#utility.yul\":749:755   */\n      0x00\n        /* \"#utility.yul\":798:800   */\n      0x20\n        /* \"#utility.yul\":786:795   */\n      dup3\n        /* \"#utility.yul\":777:784   */\n      dup5\n        /* \"#utility.yul\":773:796   */\n      sub\n        /* \"#utility.yul\":769:801   */\n      slt\n        /* \"#utility.yul\":766:885   */\n      iszero\n      tag_63\n      jumpi\n        /* \"#utility.yul\":804:883   */\n      tag_64\n      tag_37\n      jump\t// in\n    tag_64:\n        /* \"#utility.yul\":766:885   */\n    tag_63:\n        /* \"#utility.yul\":924:925   */\n      0x00\n        /* \"#utility.yul\":949:1002   */\n      tag_65\n        /* \"#utility.yul\":994:1001   */\n      dup5\n        /* \"#utility.yul\":985:991   */\n      dup3\n        /* \"#utility.yul\":974:983   */\n      dup6\n        /* \"#utility.yul\":970:992   */\n      add\n        /* \"#utility.yul\":949:1002   */\n      tag_41\n      jump\t// in\n    tag_65:\n        /* \"#utility.yul\":939:1002   */\n      swap2\n      pop\n        /* \"#utility.yul\":895:1012   */\n      pop\n        /* \"#utility.yul\":690:1019   */\n      swap3\n      swap2\n      pop\n      pop\n      jump\t// out\n        /* \"#utility.yul\":1025:1143   */\n    tag_42:\n        /* \"#utility.yul\":1112:1136   */\n      tag_67\n        /* \"#utility.yul\":1130:1135   */\n      dup2\n        /* \"#utility.yul\":1112:1136   */\n      tag_39\n      jump\t// in\n    tag_67:\n        /* \"#utility.yul\":1107:1110   */\n      dup3\n        /* \"#utility.yul\":1100:1137   */\n      mstore\n        /* \"#utility.yul\":1025:1143   */\n      pop\n      pop\n      jump\t// out\n        /* \"#utility.yul\":1149:1371   */\n    tag_15:\n        /* \"#utility.yul\":1242:1246   */\n      0x00\n        /* \"#utility.yul\":1280:1282   */\n      0x20\n        /* \"#utility.yul\":1269:1278   */\n      dup3\n        /* \"#utility.yul\":1265:1283   */\n      add\n        /* \"#utility.yul\":1257:1283   */\n      swap1\n      pop\n        /* \"#utility.yul\":1293:1364   */\n      tag_69\n        /* \"#utility.yul\":1361:1362   */\n      0x00\n        /* \"#utility.yul\":1350:1359   */\n      dup4\n        /* \"#utility.yul\":1346:1363   */\n      add\n        /* \"#utility.yul\":1337:1343   */\n      dup5\n        /* \"#utility.yul\":1293:1364   */\n      tag_42\n      jump\t// in\n    tag_69:\n        /* \"#utility.yul\":1149:1371   */\n      swap3\n      swap2\n      pop\n      pop\n      jump\t// out\n        /* \"#utility.yul\":1377:1503   */\n    tag_43:\n        /* \"#utility.yul\":1414:1421   */\n      0x00\n        /* \"#utility.yul\":1454:1496   */\n      0xffffffffffffffffffffffffffffffffffffffff\n        /* \"#utility.yul\":1447:1452   */\n      dup3\n        /* \"#utility.yul\":1443:1497   */\n      and\n        /* \"#utility.yul\":1432:1497   */\n      swap1\n      pop\n        /* \"#utility.yul\":1377:1503   */\n      swap2\n      swap1\n      pop\n      jump\t// out\n        /* \"#utility.yul\":1509:1613   */\n    tag_44:\n        /* \"#utility.yul\":1554:1561   */\n      0x00\n        /* \"#utility.yul\":1583:1607   */\n      tag_72\n        /* \"#utility.yul\":1601:1606   */\n      dup3\n        /* \"#utility.yul\":1583:1607   */\n      tag_43\n      jump\t// in\n    tag_72:\n        /* \"#utility.yul\":1572:1607   */\n      swap1\n      pop\n        /* \"#utility.yul\":1509:1613   */\n      swap2\n      swap1\n      pop\n      jump\t// out\n        /* \"#utility.yul\":1619:1761   */\n    tag_45:\n        /* \"#utility.yul\":1722:1754   */\n      tag_74\n        /* \"#utility.yul\":1748:1753   */\n      dup2\n        /* \"#utility.yul\":1722:1754   */\n      tag_44\n      jump\t// in\n    tag_74:\n        /* \"#utility.yul\":1717:1720   */\n      dup3\n        /* \"#utility.yul\":1710:1755   */\n      mstore\n        /* \"#utility.yul\":1619:1761   */\n      pop\n      pop\n      jump\t// out\n        /* \"#utility.yul\":1767:2021   */\n    tag_22:\n        /* \"#utility.yul\":1876:1880   */\n      0x00\n        /* \"#utility.yul\":1914:1916   */\n      0x20\n        /* \"#utility.yul\":1903:1912   */\n      dup3\n        /* \"#utility.yul\":1899:1917   */\n      add\n        /* \"#utility.yul\":1891:1917   */\n      swap1\n      pop\n        /* \"#utility.yul\":1927:2014   */\n      tag_76\n        /* \"#utility.yul\":2011:2012   */\n      0x00\n        /* \"#utility.yul\":2000:2009   */\n      dup4\n        /* \"#utility.yul\":1996:2013   */\n      add\n        /* \"#utility.yul\":1987:1993   */\n      dup5\n        /* \"#utility.yul\":1927:2014   */\n      tag_45\n      jump\t// in\n    tag_76:\n        /* \"#utility.yul\":1767:2021   */\n      swap3\n      swap2\n      pop\n      pop\n      jump\t// out\n        /* \"#utility.yul\":2027:2196   */\n    tag_46:\n        /* \"#utility.yul\":2111:2122   */\n      0x00\n        /* \"#utility.yul\":2145:2151   */\n      dup3\n        /* \"#utility.yul\":2140:2143   */\n      dup3\n        /* \"#utility.yul\":2133:2152   */\n      mstore\n        /* \"#utility.yul\":2185:2189   */\n      0x20\n        /* \"#utility.yul\":2180:2183   */\n      dup3\n        /* \"#utility.yul\":2176:2190   */\n      add\n        /* \"#utility.yul\":2161:2190   */\n      swap1\n      pop\n        /* \"#utility.yul\":2027:2196   */\n      swap3\n      swap2\n      pop\n      pop\n      jump\t// out\n        /* \"#utility.yul\":2202:2430   */\n    tag_47:\n        /* \"#utility.yul\":2342:2376   */\n      0x5769746864726177696e6720697320706f737369626c65206f6e6c7920666f72\n        /* \"#utility.yul\":2338:2339   */\n      0x00\n        /* \"#utility.yul\":2330:2336   */\n      dup3\n        /* \"#utility.yul\":2326:2340   */\n      add\n        /* \"#utility.yul\":2319:2377   */\n      mstore\n        /* \"#utility.yul\":2411:2422   */\n      0x20616e2061646d696e0000000000000000000000000000000000000000000000\n        /* \"#utility.yul\":2406:2408   */\n      0x20\n        /* \"#utility.yul\":2398:2404   */\n      dup3\n        /* \"#utility.yul\":2394:2409   */\n      add\n        /* \"#utility.yul\":2387:2423   */\n      mstore\n        /* \"#utility.yul\":2202:2430   */\n      pop\n      jump\t// out\n        /* \"#utility.yul\":2436:2802   */\n    tag_48:\n        /* \"#utility.yul\":2578:2581   */\n      0x00\n        /* \"#utility.yul\":2599:2666   */\n      tag_80\n        /* \"#utility.yul\":2663:2665   */\n      0x29\n        /* \"#utility.yul\":2658:2661   */\n      dup4\n        /* \"#utility.yul\":2599:2666   */\n      tag_46\n      jump\t// in\n    tag_80:\n        /* \"#utility.yul\":2592:2666   */\n      swap2\n      pop\n        /* \"#utility.yul\":2675:2768   */\n      tag_81\n        /* \"#utility.yul\":2764:2767   */\n      dup3\n        /* \"#utility.yul\":2675:2768   */\n      tag_47\n      jump\t// in\n    tag_81:\n        /* \"#utility.yul\":2793:2795   */\n      0x40\n        /* \"#utility.yul\":2788:2791   */\n      dup3\n        /* \"#utility.yul\":2784:2796   */\n      add\n        /* \"#utility.yul\":2777:2796   */\n      swap1\n      pop\n        /* \"#utility.yul\":2436:2802   */\n      swap2\n      swap1\n      pop\n      jump\t// out\n        /* \"#utility.yul\":2808:3227   */\n    tag_26:\n        /* \"#utility.yul\":2974:2978   */\n      0x00\n        /* \"#utility.yul\":3012:3014   */\n      0x20\n        /* \"#utility.yul\":3001:3010   */\n      dup3\n        /* \"#utility.yul\":2997:3015   */\n      add\n        /* \"#utility.yul\":2989:3015   */\n      swap1\n      pop\n        /* \"#utility.yul\":3061:3070   */\n      dup2\n        /* \"#utility.yul\":3055:3059   */\n      dup2\n        /* \"#utility.yul\":3051:3071   */\n      sub\n        /* \"#utility.yul\":3047:3048   */\n      0x00\n        /* \"#utility.yul\":3036:3045   */\n      dup4\n        /* \"#utility.yul\":3032:3049   */\n      add\n        /* \"#utility.yul\":3025:3072   */\n      mstore\n        /* \"#utility.yul\":3089:3220   */\n      tag_83\n        /* \"#utility.yul\":3215:3219   */\n      dup2\n        /* \"#utility.yul\":3089:3220   */\n      tag_48\n      jump\t// in\n    tag_83:\n        /* \"#utility.yul\":3081:3220   */\n      swap1\n      pop\n        /* \"#utility.yul\":2808:3227   */\n      swap2\n      swap1\n      pop\n      jump\t// out\n        /* \"#utility.yul\":3233:3477   */\n    tag_49:\n        /* \"#utility.yul\":3373:3407   */\n      0x57697468647261772063616e206e6f742062652070726f6365656465642c2062\n        /* \"#utility.yul\":3369:3370   */\n      0x00\n        /* \"#utility.yul\":3361:3367   */\n      dup3\n        /* \"#utility.yul\":3357:3371   */\n      add\n        /* \"#utility.yul\":3350:3408   */\n      mstore\n        /* \"#utility.yul\":3442:3469   */\n      0x656361757365206f66206c696d697465642062616c616e636500000000000000\n        /* \"#utility.yul\":3437:3439   */\n      0x20\n        /* \"#utility.yul\":3429:3435   */\n      dup3\n        /* \"#utility.yul\":3425:3440   */\n      add\n        /* \"#utility.yul\":3418:3470   */\n      mstore\n        /* \"#utility.yul\":3233:3477   */\n      pop\n      jump\t// out\n        /* \"#utility.yul\":3483:3849   */\n    tag_50:\n        /* \"#utility.yul\":3625:3628   */\n      0x00\n        /* \"#utility.yul\":3646:3713   */\n      tag_86\n        /* \"#utility.yul\":3710:3712   */\n      0x39\n        /* \"#utility.yul\":3705:3708   */\n      dup4\n        /* \"#utility.yul\":3646:3713   */\n      tag_46\n      jump\t// in\n    tag_86:\n        /* \"#utility.yul\":3639:3713   */\n      swap2\n      pop\n        /* \"#utility.yul\":3722:3815   */\n      tag_87\n        /* \"#utility.yul\":3811:3814   */\n      dup3\n        /* \"#utility.yul\":3722:3815   */\n      tag_49\n      jump\t// in\n    tag_87:\n        /* \"#utility.yul\":3840:3842   */\n      0x40\n        /* \"#utility.yul\":3835:3838   */\n      dup3\n        /* \"#utility.yul\":3831:3843   */\n      add\n        /* \"#utility.yul\":3824:3843   */\n      swap1\n      pop\n        /* \"#utility.yul\":3483:3849   */\n      swap2\n      swap1\n      pop\n      jump\t// out\n        /* \"#utility.yul\":3855:4274   */\n    tag_29:\n        /* \"#utility.yul\":4021:4025   */\n      0x00\n        /* \"#utility.yul\":4059:4061   */\n      0x20\n        /* \"#utility.yul\":4048:4057   */\n      dup3\n        /* \"#utility.yul\":4044:4062   */\n      add\n        /* \"#utility.yul\":4036:4062   */\n      swap1\n      pop\n        /* \"#utility.yul\":4108:4117   */\n      dup2\n        /* \"#utility.yul\":4102:4106   */\n      dup2\n        /* \"#utility.yul\":4098:4118   */\n      sub\n        /* \"#utility.yul\":4094:4095   */\n      0x00\n        /* \"#utility.yul\":4083:4092   */\n      dup4\n        /* \"#utility.yul\":4079:4096   */\n      add\n        /* \"#utility.yul\":4072:4119   */\n      mstore\n        /* \"#utility.yul\":4136:4267   */\n      tag_89\n        /* \"#utility.yul\":4262:4266   */\n      dup2\n        /* \"#utility.yul\":4136:4267   */\n      tag_50\n      jump\t// in\n    tag_89:\n        /* \"#utility.yul\":4128:4267   */\n      swap1\n      pop\n        /* \"#utility.yul\":3855:4274   */\n      swap2\n      swap1\n      pop\n      jump\t// out\n        /* \"#utility.yul\":4280:4460   */\n    tag_51:\n        /* \"#utility.yul\":4328:4405   */\n      0x4e487b7100000000000000000000000000000000000000000000000000000000\n        /* \"#utility.yul\":4325:4326   */\n      0x00\n        /* \"#utility.yul\":4318:4406   */\n      mstore\n        /* \"#utility.yul\":4425:4429   */\n      0x11\n        /* \"#utility.yul\":4422:4423   */\n      0x04\n        /* \"#utility.yul\":4415:4430   */\n      mstore\n        /* \"#utility.yul\":4449:4453   */\n      0x24\n        /* \"#utility.yul\":4446:4447   */\n      0x00\n        /* \"#utility.yul\":4439:4454   */\n      revert\n        /* \"#utility.yul\":4466:4657   */\n    tag_31:\n        /* \"#utility.yul\":4506:4510   */\n      0x00\n        /* \"#utility.yul\":4526:4546   */\n      tag_92\n        /* \"#utility.yul\":4544:4545   */\n      dup3\n        /* \"#utility.yul\":4526:4546   */\n      tag_39\n      jump\t// in\n    tag_92:\n        /* \"#utility.yul\":4521:4546   */\n      swap2\n      pop\n        /* \"#utility.yul\":4560:4580   */\n      tag_93\n        /* \"#utility.yul\":4578:4579   */\n      dup4\n        /* \"#utility.yul\":4560:4580   */\n      tag_39\n      jump\t// in\n    tag_93:\n        /* \"#utility.yul\":4555:4580   */\n      swap3\n      pop\n        /* \"#utility.yul\":4599:4600   */\n      dup3\n        /* \"#utility.yul\":4596:4597   */\n      dup3\n        /* \"#utility.yul\":4593:4601   */\n      lt\n        /* \"#utility.yul\":4590:4624   */\n      iszero\n      tag_94\n      jumpi\n        /* \"#utility.yul\":4604:4622   */\n      tag_95\n      tag_51\n      jump\t// in\n    tag_95:\n        /* \"#utility.yul\":4590:4624   */\n    tag_94:\n        /* \"#utility.yul\":4649:4650   */\n      dup3\n        /* \"#utility.yul\":4646:4647   */\n      dup3\n        /* \"#utility.yul\":4642:4651   */\n      sub\n        /* \"#utility.yul\":4634:4651   */\n      swap1\n      pop\n        /* \"#utility.yul\":4466:4657   */\n      swap3\n      swap2\n      pop\n      pop\n      jump\t// out\n        /* \"#utility.yul\":4663:4968   */\n    tag_34:\n        /* \"#utility.yul\":4703:4706   */\n      0x00\n        /* \"#utility.yul\":4722:4742   */\n      tag_97\n        /* \"#utility.yul\":4740:4741   */\n      dup3\n        /* \"#utility.yul\":4722:4742   */\n      tag_39\n      jump\t// in\n    tag_97:\n        /* \"#utility.yul\":4717:4742   */\n      swap2\n      pop\n        /* \"#utility.yul\":4756:4776   */\n      tag_98\n        /* \"#utility.yul\":4774:4775   */\n      dup4\n        /* \"#utility.yul\":4756:4776   */\n      tag_39\n      jump\t// in\n    tag_98:\n        /* \"#utility.yul\":4751:4776   */\n      swap3\n      pop\n        /* \"#utility.yul\":4910:4911   */\n      dup3\n        /* \"#utility.yul\":4842:4908   */\n      0xffffffffffffffffffffffffffffffffffffffffffffffffffffffffffffffff\n        /* \"#utility.yul\":4838:4912   */\n      sub\n        /* \"#utility.yul\":4835:4836   */\n      dup3\n        /* \"#utility.yul\":4832:4913   */\n      gt\n        /* \"#utility.yul\":4829:4936   */\n      iszero\n      tag_99\n      jumpi\n        /* \"#utility.yul\":4916:4934   */\n      tag_100\n      tag_51\n      jump\t// in\n    tag_100:\n        /* \"#utility.yul\":4829:4936   */\n    tag_99:\n        /* \"#utility.yul\":4960:4961   */\n      dup3\n        /* \"#utility.yul\":4957:4958   */\n      dup3\n        /* \"#utility.yul\":4953:4962   */\n      add\n        /* \"#utility.yul\":4946:4962   */\n      swap1\n      pop\n        /* \"#utility.yul\":4663:4968   */\n      swap3\n      swap2\n      pop\n      pop\n      jump\t// out\n\n    auxdata: 0xa2646970667358221220f965217bfb592d4167b2417173df9165a09ac94d709b1bb0f61e8e875ab8ff0e64736f6c634300080d0033\n}\n",
				"bytecode": {
					"linkReferences": {},
					"object": "608060405234801561001057600080fd5b5033600160006101000a81548173ffffffffffffffffffffffffffffffffffffffff021916908373ffffffffffffffffffffffffffffffffffffffff1602179055506000808190555061006761006c60201b60201c565b610115565b3460008082825461007d91906100bf565b92505081905550565b6000819050919050565b7f4e487b7100000000000000000000000000000000000000000000000000000000600052601160045260246000fd5b60006100ca82610086565b91506100d583610086565b9250827fffffffffffffffffffffffffffffffffffffffffffffffffffffffffffffffff0382111561010a57610109610090565b5b828201905092915050565b610522806101246000396000f3fe608060405234801561001057600080fd5b506004361061004c5760003560e01c80632e1a7d4d146100515780633104562b1461006d578063d5b690ee1461009d578063f851a440146100bb575b600080fd5b61006b6004803603810190610066919061024b565b6100d9565b005b6100876004803603810190610082919061024b565b6101c5565b6040516100949190610287565b60405180910390f35b6100a56101e1565b6040516100b29190610287565b60405180910390f35b6100c36101ea565b6040516100d091906102e3565b60405180910390f35b600160009054906101000a900473ffffffffffffffffffffffffffffffffffffffff1673ffffffffffffffffffffffffffffffffffffffff163373ffffffffffffffffffffffffffffffffffffffff1614610169576040517f08c379a000000000000000000000000000000000000000000000000000000000815260040161016090610381565b60405180910390fd5b6000548111156101ae576040517f08c379a00000000000000000000000000000000000000000000000000000000081526004016101a590610413565b60405180910390fd5b806000546101bc9190610462565b60008190555050565b6000816000546101d59190610496565b60008190559050919050565b60008054905090565b600160009054906101000a900473ffffffffffffffffffffffffffffffffffffffff1681565b600080fd5b6000819050919050565b61022881610215565b811461023357600080fd5b50565b6000813590506102458161021f565b92915050565b60006020828403121561026157610260610210565b5b600061026f84828501610236565b91505092915050565b61028181610215565b82525050565b600060208201905061029c6000830184610278565b92915050565b600073ffffffffffffffffffffffffffffffffffffffff82169050919050565b60006102cd826102a2565b9050919050565b6102dd816102c2565b82525050565b60006020820190506102f860008301846102d4565b92915050565b600082825260208201905092915050565b7f5769746864726177696e6720697320706f737369626c65206f6e6c7920666f7260008201527f20616e2061646d696e0000000000000000000000000000000000000000000000602082015250565b600061036b6029836102fe565b91506103768261030f565b604082019050919050565b6000602082019050818103600083015261039a8161035e565b9050919050565b7f57697468647261772063616e206e6f742062652070726f6365656465642c206260008201527f656361757365206f66206c696d697465642062616c616e636500000000000000602082015250565b60006103fd6039836102fe565b9150610408826103a1565b604082019050919050565b6000602082019050818103600083015261042c816103f0565b9050919050565b7f4e487b7100000000000000000000000000000000000000000000000000000000600052601160045260246000fd5b600061046d82610215565b915061047883610215565b92508282101561048b5761048a610433565b5b828203905092915050565b60006104a182610215565b91506104ac83610215565b9250827fffffffffffffffffffffffffffffffffffffffffffffffffffffffffffffffff038211156104e1576104e0610433565b5b82820190509291505056fea2646970667358221220f965217bfb592d4167b2417173df9165a09ac94d709b1bb0f61e8e875ab8ff0e64736f6c634300080d0033",
					"opcodes": "PUSH1 0x80 PUSH1 0x40 MSTORE CALLVALUE DUP1 ISZERO PUSH2 0x10 JUMPI PUSH1 0x0 DUP1 REVERT JUMPDEST POP CALLER PUSH1 0x1 PUSH1 0x0 PUSH2 0x100 EXP DUP2 SLOAD DUP2 PUSH20 0xFFFFFFFFFFFFFFFFFFFFFFFFFFFFFFFFFFFFFFFF MUL NOT AND SWAP1 DUP4 PUSH20 0xFFFFFFFFFFFFFFFFFFFFFFFFFFFFFFFFFFFFFFFF AND MUL OR SWAP1 SSTORE POP PUSH1 0x0 DUP1 DUP2 SWAP1 SSTORE POP PUSH2 0x67 PUSH2 0x6C PUSH1 0x20 SHL PUSH1 0x20 SHR JUMP JUMPDEST PUSH2 0x115 JUMP JUMPDEST CALLVALUE PUSH1 0x0 DUP1 DUP3 DUP3 SLOAD PUSH2 0x7D SWAP2 SWAP1 PUSH2 0xBF JUMP JUMPDEST SWAP3 POP POP DUP2 SWAP1 SSTORE POP JUMP JUMPDEST PUSH1 0x0 DUP2 SWAP1 POP SWAP2 SWAP1 POP JUMP JUMPDEST PUSH32 0x4E487B7100000000000000000000000000000000000000000000000000000000 PUSH1 0x0 MSTORE PUSH1 0x11 PUSH1 0x4 MSTORE PUSH1 0x24 PUSH1 0x0 REVERT JUMPDEST PUSH1 0x0 PUSH2 0xCA DUP3 PUSH2 0x86 JUMP JUMPDEST SWAP2 POP PUSH2 0xD5 DUP4 PUSH2 0x86 JUMP JUMPDEST SWAP3 POP DUP3 PUSH32 0xFFFFFFFFFFFFFFFFFFFFFFFFFFFFFFFFFFFFFFFFFFFFFFFFFFFFFFFFFFFFFFFF SUB DUP3 GT ISZERO PUSH2 0x10A JUMPI PUSH2 0x109 PUSH2 0x90 JUMP JUMPDEST JUMPDEST DUP3 DUP3 ADD SWAP1 POP SWAP3 SWAP2 POP POP JUMP JUMPDEST PUSH2 0x522 DUP1 PUSH2 0x124 PUSH1 0x0 CODECOPY PUSH1 0x0 RETURN INVALID PUSH1 0x80 PUSH1 0x40 MSTORE CALLVALUE DUP1 ISZERO PUSH2 0x10 JUMPI PUSH1 0x0 DUP1 REVERT JUMPDEST POP PUSH1 0x4 CALLDATASIZE LT PUSH2 0x4C JUMPI PUSH1 0x0 CALLDATALOAD PUSH1 0xE0 SHR DUP1 PUSH4 0x2E1A7D4D EQ PUSH2 0x51 JUMPI DUP1 PUSH4 0x3104562B EQ PUSH2 0x6D JUMPI DUP1 PUSH4 0xD5B690EE EQ PUSH2 0x9D JUMPI DUP1 PUSH4 0xF851A440 EQ PUSH2 0xBB JUMPI JUMPDEST PUSH1 0x0 DUP1 REVERT JUMPDEST PUSH2 0x6B PUSH1 0x4 DUP1 CALLDATASIZE SUB DUP2 ADD SWAP1 PUSH2 0x66 SWAP2 SWAP1 PUSH2 0x24B JUMP JUMPDEST PUSH2 0xD9 JUMP JUMPDEST STOP JUMPDEST PUSH2 0x87 PUSH1 0x4 DUP1 CALLDATASIZE SUB DUP2 ADD SWAP1 PUSH2 0x82 SWAP2 SWAP1 PUSH2 0x24B JUMP JUMPDEST PUSH2 0x1C5 JUMP JUMPDEST PUSH1 0x40 MLOAD PUSH2 0x94 SWAP2 SWAP1 PUSH2 0x287 JUMP JUMPDEST PUSH1 0x40 MLOAD DUP1 SWAP2 SUB SWAP1 RETURN JUMPDEST PUSH2 0xA5 PUSH2 0x1E1 JUMP JUMPDEST PUSH1 0x40 MLOAD PUSH2 0xB2 SWAP2 SWAP1 PUSH2 0x287 JUMP JUMPDEST PUSH1 0x40 MLOAD DUP1 SWAP2 SUB SWAP1 RETURN JUMPDEST PUSH2 0xC3 PUSH2 0x1EA JUMP JUMPDEST PUSH1 0x40 MLOAD PUSH2 0xD0 SWAP2 SWAP1 PUSH2 0x2E3 JUMP JUMPDEST PUSH1 0x40 MLOAD DUP1 SWAP2 SUB SWAP1 RETURN JUMPDEST PUSH1 0x1 PUSH1 0x0 SWAP1 SLOAD SWAP1 PUSH2 0x100 EXP SWAP1 DIV PUSH20 0xFFFFFFFFFFFFFFFFFFFFFFFFFFFFFFFFFFFFFFFF AND PUSH20 0xFFFFFFFFFFFFFFFFFFFFFFFFFFFFFFFFFFFFFFFF AND CALLER PUSH20 0xFFFFFFFFFFFFFFFFFFFFFFFFFFFFFFFFFFFFFFFF AND EQ PUSH2 0x169 JUMPI PUSH1 0x40 MLOAD PUSH32 0x8C379A000000000000000000000000000000000000000000000000000000000 DUP2 MSTORE PUSH1 0x4 ADD PUSH2 0x160 SWAP1 PUSH2 0x381 JUMP JUMPDEST PUSH1 0x40 MLOAD DUP1 SWAP2 SUB SWAP1 REVERT JUMPDEST PUSH1 0x0 SLOAD DUP2 GT ISZERO PUSH2 0x1AE JUMPI PUSH1 0x40 MLOAD PUSH32 0x8C379A000000000000000000000000000000000000000000000000000000000 DUP2 MSTORE PUSH1 0x4 ADD PUSH2 0x1A5 SWAP1 PUSH2 0x413 JUMP JUMPDEST PUSH1 0x40 MLOAD DUP1 SWAP2 SUB SWAP1 REVERT JUMPDEST DUP1 PUSH1 0x0 SLOAD PUSH2 0x1BC SWAP2 SWAP1 PUSH2 0x462 JUMP JUMPDEST PUSH1 0x0 DUP2 SWAP1 SSTORE POP POP JUMP JUMPDEST PUSH1 0x0 DUP2 PUSH1 0x0 SLOAD PUSH2 0x1D5 SWAP2 SWAP1 PUSH2 0x496 JUMP JUMPDEST PUSH1 0x0 DUP2 SWAP1 SSTORE SWAP1 POP SWAP2 SWAP1 POP JUMP JUMPDEST PUSH1 0x0 DUP1 SLOAD SWAP1 POP SWAP1 JUMP JUMPDEST PUSH1 0x1 PUSH1 0x0 SWAP1 SLOAD SWAP1 PUSH2 0x100 EXP SWAP1 DIV PUSH20 0xFFFFFFFFFFFFFFFFFFFFFFFFFFFFFFFFFFFFFFFF AND DUP2 JUMP JUMPDEST PUSH1 0x0 DUP1 REVERT JUMPDEST PUSH1 0x0 DUP2 SWAP1 POP SWAP2 SWAP1 POP JUMP JUMPDEST PUSH2 0x228 DUP2 PUSH2 0x215 JUMP JUMPDEST DUP2 EQ PUSH2 0x233 JUMPI PUSH1 0x0 DUP1 REVERT JUMPDEST POP JUMP JUMPDEST PUSH1 0x0 DUP2 CALLDATALOAD SWAP1 POP PUSH2 0x245 DUP2 PUSH2 0x21F JUMP JUMPDEST SWAP3 SWAP2 POP POP JUMP JUMPDEST PUSH1 0x0 PUSH1 0x20 DUP3 DUP5 SUB SLT ISZERO PUSH2 0x261 JUMPI PUSH2 0x260 PUSH2 0x210 JUMP JUMPDEST JUMPDEST PUSH1 0x0 PUSH2 0x26F DUP5 DUP3 DUP6 ADD PUSH2 0x236 JUMP JUMPDEST SWAP2 POP POP SWAP3 SWAP2 POP POP JUMP JUMPDEST PUSH2 0x281 DUP2 PUSH2 0x215 JUMP JUMPDEST DUP3 MSTORE POP POP JUMP JUMPDEST PUSH1 0x0 PUSH1 0x20 DUP3 ADD SWAP1 POP PUSH2 0x29C PUSH1 0x0 DUP4 ADD DUP5 PUSH2 0x278 JUMP JUMPDEST SWAP3 SWAP2 POP POP JUMP JUMPDEST PUSH1 0x0 PUSH20 0xFFFFFFFFFFFFFFFFFFFFFFFFFFFFFFFFFFFFFFFF DUP3 AND SWAP1 POP SWAP2 SWAP1 POP JUMP JUMPDEST PUSH1 0x0 PUSH2 0x2CD DUP3 PUSH2 0x2A2 JUMP JUMPDEST SWAP1 POP SWAP2 SWAP1 POP JUMP JUMPDEST PUSH2 0x2DD DUP2 PUSH2 0x2C2 JUMP JUMPDEST DUP3 MSTORE POP POP JUMP JUMPDEST PUSH1 0x0 PUSH1 0x20 DUP3 ADD SWAP1 POP PUSH2 0x2F8 PUSH1 0x0 DUP4 ADD DUP5 PUSH2 0x2D4 JUMP JUMPDEST SWAP3 SWAP2 POP POP JUMP JUMPDEST PUSH1 0x0 DUP3 DUP3 MSTORE PUSH1 0x20 DUP3 ADD SWAP1 POP SWAP3 SWAP2 POP POP JUMP JUMPDEST PUSH32 0x5769746864726177696E6720697320706F737369626C65206F6E6C7920666F72 PUSH1 0x0 DUP3 ADD MSTORE PUSH32 0x20616E2061646D696E0000000000000000000000000000000000000000000000 PUSH1 0x20 DUP3 ADD MSTORE POP JUMP JUMPDEST PUSH1 0x0 PUSH2 0x36B PUSH1 0x29 DUP4 PUSH2 0x2FE JUMP JUMPDEST SWAP2 POP PUSH2 0x376 DUP3 PUSH2 0x30F JUMP JUMPDEST PUSH1 0x40 DUP3 ADD SWAP1 POP SWAP2 SWAP1 POP JUMP JUMPDEST PUSH1 0x0 PUSH1 0x20 DUP3 ADD SWAP1 POP DUP2 DUP2 SUB PUSH1 0x0 DUP4 ADD MSTORE PUSH2 0x39A DUP2 PUSH2 0x35E JUMP JUMPDEST SWAP1 POP SWAP2 SWAP1 POP JUMP JUMPDEST PUSH32 0x57697468647261772063616E206E6F742062652070726F6365656465642C2062 PUSH1 0x0 DUP3 ADD MSTORE PUSH32 0x656361757365206F66206C696D697465642062616C616E636500000000000000 PUSH1 0x20 DUP3 ADD MSTORE POP JUMP JUMPDEST PUSH1 0x0 PUSH2 0x3FD PUSH1 0x39 DUP4 PUSH2 0x2FE JUMP JUMPDEST SWAP2 POP PUSH2 0x408 DUP3 PUSH2 0x3A1 JUMP JUMPDEST PUSH1 0x40 DUP3 ADD SWAP1 POP SWAP2 SWAP1 POP JUMP JUMPDEST PUSH1 0x0 PUSH1 0x20 DUP3 ADD SWAP1 POP DUP2 DUP2 SUB PUSH1 0x0 DUP4 ADD MSTORE PUSH2 0x42C DUP2 PUSH2 0x3F0 JUMP JUMPDEST SWAP1 POP SWAP2 SWAP1 POP JUMP JUMPDEST PUSH32 0x4E487B7100000000000000000000000000000000000000000000000000000000 PUSH1 0x0 MSTORE PUSH1 0x11 PUSH1 0x4 MSTORE PUSH1 0x24 PUSH1 0x0 REVERT JUMPDEST PUSH1 0x0 PUSH2 0x46D DUP3 PUSH2 0x215 JUMP JUMPDEST SWAP2 POP PUSH2 0x478 DUP4 PUSH2 0x215 JUMP JUMPDEST SWAP3 POP DUP3 DUP3 LT ISZERO PUSH2 0x48B JUMPI PUSH2 0x48A PUSH2 0x433 JUMP JUMPDEST JUMPDEST DUP3 DUP3 SUB SWAP1 POP SWAP3 SWAP2 POP POP JUMP JUMPDEST PUSH1 0x0 PUSH2 0x4A1 DUP3 PUSH2 0x215 JUMP JUMPDEST SWAP2 POP PUSH2 0x4AC DUP4 PUSH2 0x215 JUMP JUMPDEST SWAP3 POP DUP3 PUSH32 0xFFFFFFFFFFFFFFFFFFFFFFFFFFFFFFFFFFFFFFFFFFFFFFFFFFFFFFFFFFFFFFFF SUB DUP3 GT ISZERO PUSH2 0x4E1 JUMPI PUSH2 0x4E0 PUSH2 0x433 JUMP JUMPDEST JUMPDEST DUP3 DUP3 ADD SWAP1 POP SWAP3 SWAP2 POP POP JUMP INVALID LOG2 PUSH5 0x6970667358 0x22 SLT KECCAK256 0xF9 PUSH6 0x217BFB592D41 PUSH8 0xB2417173DF9165A0 SWAP11 0xC9 0x4D PUSH17 0x9B1BB0F61E8E875AB8FF0E64736F6C6343 STOP ADDMOD 0xD STOP CALLER "
				},
				"gasEstimates": {
					"creation": {
						"codeDepositCost": "262800",
						"executionCost": "infinite",
						"totalCost": "infinite"
					},
					"external": {
						"admin()": "2558",
						"checkDepositBalance()": "2459",
						"deposite(uint256)": "infinite",
						"withdraw(uint256)": "infinite"
					},
					"internal": {
						"updateBalance()": "infinite"
					}
				},
				"methodIdentifiers": {
					"admin()": "f851a440",
					"checkDepositBalance()": "d5b690ee",
					"deposite(uint256)": "3104562b",
					"withdraw(uint256)": "2e1a7d4d"
				}
			},
			"storageLayout": {
				"storage": [
					{
						"astId": 3,
						"contract": "contracts/myContract.sol:MyContract",
						"label": "balance",
						"offset": 0,
						"slot": "0",
						"type": "t_uint256"
					},
					{
						"astId": 5,
						"contract": "contracts/myContract.sol:MyContract",
						"label": "admin",
						"offset": 0,
						"slot": "1",
						"type": "t_address_payable"
					}
				],
				"types": {
					"t_address_payable": {
						"encoding": "inplace",
						"label": "address payable",
						"numberOfBytes": "20"
					},
					"t_uint256": {
						"encoding": "inplace",
						"label": "uint256",
						"numberOfBytes": "32"
					}
				}
			},
			"userdoc": {
				"kind": "user",
				"methods": {},
				"version": 1
			}
		}
	}
}